:100000000C943E010C9468010C9468010C946801F6
:100010000C9468010C9468010C9468010C946801BC
:100020000C9468010C9468010C9468010C946801AC
:100030000C9468010C9468010C94C90B0C94680131
:100040000C9468010C9468010C9468010C9468018C
:100050000C9468010C9468010C9468010C9468017C
:100060000C9468010C9468010C9468010C9468016C
:100070000C9468010C9468010C9468010C9468015C
:100080000C9468010C9468010C9468010C9468014C
:100090000C9468010C9468010C9468010C9468013C
:1000A0000C9468010C9468010C9468010C9468012C
:1000B0000C9468010C9468010C9468010C9468011C
:1000C0000C9468010C9468010C9468010C9468010C
:1000D0000C9468010C9468010C9468010C946801FC
:1000E0000C9468010C9468010C9468010C946801EC
:1000F0000C9468010C9468010C9468010C946801DC
:100100000C9468010C9468010C9468010C946801CB
:100110000C9468010C9468010C9468010C946801BB
:100120000C9468010C9468010C9468010C946801AB
:100130000C9468010C9468010C9468010C9468019B
:100140000C9468010C9468010C9468010C9468018B
:100150000C9468010C9468010C9468010C9468017B
:100160000C9468010C9468010C9468010C9468016B
:100170000C9468010C9468010C9468010C9468015B
:100180000C9468010C9468010C9468010C9468014B
:100190000C9468010C9468010C9468010C9468013B
:1001A0000C9468010C9468010C9468010C9468012B
:1001B0000C9479260C9468010C9468010C946801E5
:1001C0000C9468010C9468010C9468010C9468010B
:1001D0000C9468010C9468010C9468010C946801FB
:1001E0000C9468010C9468010C9468010C946801EB
:1001F0000C9468010C9468010C946801371E371E3A
:10020000371EBE1E8A1EB81E371E371EBE1E8A1E11
:100210004F224C2249224622432240223D223A22AA
:10022000372234220C943D220C9437220C94342231
:100230000C94B81E0C943A220C9472190C94B521AB
:100240000C9443220C94BE1E0C9440220C941C2649
:100250000C9491250C9449220C940C290C944C225A
:100260000C94191C0C94A7060C94BE200C948A1EA6
:100270000C944F220C94371E0C94462211241FBE5E
:10028000CFEFCDBFDFE3DEBF00E00CBFEEE6F5E36E
:100290008AEA90E48193E030F907E0F3000011E28C
:1002A000A0E0B0E2E4E8FAE600E00BBF02C007908D
:1002B0000D92A231B107D9F725E3A2E1B1E201C065
:1002C0001D92AE36B207E1F70E9469200C944035CA
:1002D0000C940000CF93DF93CDB7DEB780EA96E0B1
:1002E00020E1FC01228380EA96E020E2FC012283E7
:1002F00080EA96E020E4FC01228380EA96E020E890
:10030000FC0122830000DF91CF910895CF93DF930A
:10031000CDB7DEB780EA96E0FC018085882F90E0BB
:10032000807199279595879595958795959587954A
:1003300095958795892B89F48091122190911321AD
:1003400080369A4E20F580911221909113210196CA
:1003500080931221909313211AC0809112219091C1
:1003600013210B9768F08091122190911321C3976C
:1003700018F01092613507C081E08093613503C0A9
:1003800082E080936135109212211092132180EA4D
:1003900096E0FC018085882F90E0807299279595E2
:1003A0008795959587959595879595958795959535
:1003B0008795892B89F4809114219091152180369D
:1003C0009A4E20F5809114219091152101968093E9
:1003D0001421909315211AC0809114219091152118
:1003E0000B9768F08091142190911521C39718F014
:1003F0001092623507C081E08093623503C082E0CD
:1004000080936235109214211092152180EA96E0B3
:10041000FC018085882F90E080749927082E892F11
:10042000000C881F990B000C881F991F892B89F4D9
:10043000809116219091172180369A4E20F5809157
:1004400016219091172101968093162190931721E0
:100450001AC080911621909117210B9768F0809116
:10046000162190911721C39718F01092633507C099
:1004700081E08093633503C082E0809363351092FE
:1004800016211092172180EA96E0FC0180858823CE
:100490008CF0809118219091192180369A4E20F588
:1004A00080911821909119210196809318219093A1
:1004B00019211AC080911821909119210B9768F089
:1004C0008091182190911921C39718F010926435EA
:1004D00007C081E08093643503C082E08093643577
:1004E00010921821109219210000DF91CF910895E8
:1004F000CF93DF931F92CDB7DEB789838981882F91
:1005000090E08130910579F0823091051CF4892BBF
:1005100039F012C08230910549F0039751F00CC0B8
:10052000809161350AC08091623507C08091633542
:1005300004C08091643501C082E00F90DF91CF91BB
:1005400008950F93CF93DF9300D000D0CDB7DEB7DF
:100550008C839D836E838FE390E0FC0180818B838D
:10056000F8948C819D8189839A838BE390E0FC01D0
:10057000108289819A812E81FC0108ED04BF2083BD
:100580008FE390E02B81FC01208300002696CDBFF5
:10059000DEBFDF91CF910F910895CF93DF9300D00D
:1005A000CDB7DEB789836A834B8380E590E02A81EB
:1005B000222311F020E201C020E03981322B2B816F
:1005C000232BFC01228300002396CDBFDEBFDF91E9
:1005D000CF910895CF93DF931F921F92CDB7DEB7CF
:1005E00089836A838A818F718A8380E590E039816B
:1005F0002A81232BFC01258300000F900F90DF91AF
:10060000CF910895CF93DF931F921F92CDB7DEB79E
:100610008A8380E590E020E530E0F9012081322FE7
:100620002A8120952323FC01208380E590E0FC01B2
:1006300090818A818923898389810F900F90DF912E
:10064000CF910895CF93DF9300D0CDB7DEB78A83E3
:100650006B839A818B81892B8983698181E490E006
:100660000E94A10200002396CDBFDEBFDF91CF9193
:100670000895CF93DF931F921F92CDB7DEB78A8381
:1006800080E490E0FC018081982F987F8A81892BFB
:100690008983698180E490E00E94A10280E490E077
:1006A000FC0190818A818923898389810F900F9031
:1006B000DF91CF910895CF93DF9300D0CDB7DEB710
:1006C00089839A836B8389819A81FC018081982F29
:1006D000907F8B81892B282F89819A81FC0120832F
:1006E00000002396CDBFDEBFDF91CF910895CF9359
:1006F000DF9300D0CDB7DEB789839A836B8389817E
:100700009A81FC018181982F987F8B81892B282FDA
:1007100089819A81FC01218300002396CDBFDEBF31
:10072000DF91CF910895CF93DF9300D0CDB7DEB79F
:1007300089839A836B8389819A81FC018681982FB2
:100740009C7F8B81892B282F89819A81FC012683AC
:1007500000002396CDBFDEBFDF91CF910895CF93E8
:10076000DF9300D01F92CDB7DEB789839A836B8366
:100770007C838BE20E94C30300002496CDBFDEBFC2
:10078000DF91CF910895CF93DF931F921F92CDB742
:10079000DEB78A838A818B3219F481E089830EC0A7
:1007A0008A818C3219F482E0898308C08A818F3271
:1007B00019F483E0898302C084E089830E94E60300
:1007C00000000F900F90DF91CF910895CF93DF93AA
:1007D000CDB7DEB7000084E390E028EDFC01208374
:1007E00088E790E021E0FC0121830000DF91CF91B8
:1007F0000895CF93DF931F921F92CDB7DEB780E1AC
:1008000090E00E94360789839A8389819A81892B97
:1008100061F089819A81FC01108211821282138217
:1008200089819A8104960E94880789819A810F9014
:100830000F90DF91CF910895CF92DF92EF92FF92C8
:100840000F931F93CF93DF93CDB7DEB76D97CDBFD7
:10085000DEBF8A8B9B8B4C8B5D8B6E8B7F8B288F47
:10086000098FCA8EDB8EEC8EFD8E8A899B898987E3
:100870009A871D821E821F8218861B860E948B14F7
:1008800089859A85FC0180819181A281B3818C87C1
:100890009D87AE87BF872C893D894E895F898C856E
:1008A0009D85AE85BF85098DBC01CD010E94C50621
:1008B000888B8889882359F18C859D85AE85BF8575
:1008C00089839A83AB83BC831A8E1B8E1C8E1D8EEC
:1008D000888D882309F465C089859A85FC0120816B
:1008E0003181428153818C899D89AE89BF898095F0
:1008F0009095A095B09582239323A423B5232985B1
:100900003A85F90180839183A283B3834AC08A8D9B
:100910009B8DAC8DBD8D892B8A2B8B2B59F48C85AF
:100920009D85AE85BF8589839A83AB83BC8381E037
:100930008B8737C0888D882349F08D819E81AF8158
:10094000B885B1608D839E83AF83B887898D8823F6
:1009500049F08D819E81AF81B885B4608D839E837F
:10096000AF83B8872C893D894E895F898D819E81AF
:10097000AF81B885822B932BA42BB52B29853A8583
:10098000F90134962A8D3B8D4C8D5D8D89019A013C
:10099000AC01BD01CF010E945E1719821A821B8231
:1009A0001C820E949814898B8A8D9B8DAC8DBD8D85
:1009B000892B8A2B8B2B09F465C08989882311F434
:1009C0000E941F0B0E941C1ADC01CB0189839A83B1
:1009D000AB83BC8389819A81AB81BC8188279927AD
:1009E000AA27B270892B8A2B8B2B09F042C0F09179
:1009F000A200FF93F87FF093A20089859A85FC01FD
:100A000080819181A281B38189839A83AB83BC83E6
:100A10002C893D894E895F8989819A81AB81BC810E
:100A2000098DBC01CD010E94C5068823E9F0888D9F
:100A30008823D1F089859A85FC012081318142810A
:100A400053818C899D89AE89BF8980959095A095A9
:100A5000B09582239323A423B52329853A85F901F0
:100A600080839183A283B38381E08B87FF91F0938E
:100A7000A20089819A81AB81BC81BB2789839A833B
:100A8000AB83BC8389819A81AB81BC81BC01CD01E0
:100A90006D96CDBFDEBFDF91CF911F910F91FF907B
:100AA000EF90DF90CF900895CF93DF93CDB7DEB76F
:100AB0002C97CDBFDEBF8F83988749875A876B8776
:100AC0007C878F81988589839A83F091A200FF9318
:100AD000F87FF093A20089819A81FC018081918145
:100AE000A281B3818B839C83AD83BE8389819A81EC
:100AF000FC01208131814281538189859A85AB85B2
:100B0000BC8580959095A095B09582239323A423CE
:100B1000B52329813A81F90180839183A283B3832C
:100B2000FF91F093A2008B819C81AD81BE81BC01BD
:100B3000CD012C96CDBFDEBFDF91CF910895CF932D
:100B4000DF93CDB7DEB76D97CDBFDEBF888F998FAE
:100B50004A8F5B8F6C8F7D8F1B821C821D821E8251
:100B6000888D998D888799871F82888599850496B5
:100B70008A879B878A859B8503968C879D870E94A1
:100B80008B148A859B85FC018781908589839A8354
:100B900088859985FC0120813181428153818A8D2C
:100BA0009B8DAC8DBD8D822B932BA42BB52B2885D3
:100BB0003985F90180839183A283B38395C08981AC
:100BC0009A81FC01848195818E879F8789819A8192
:100BD000FC0180819181A281B381888B998BAA8B42
:100BE000BB8B1F8288899989AA89BB898827992705
:100BF000AA278C8B9D8BAE8BBF8B88899989AA89FC
:100C0000BB89BB27888B998BAA8BBB8B8C899D89D1
:100C1000AE89BF8988279927AA27B470892B8A2B88
:100C20008B2BB1F488859985FC012081318142812B
:100C3000538188899989AA89BB8982239323A42314
:100C4000B523892B8A2B8B2BE9F081E08F831AC087
:100C500088859985FC012081318142815381888971
:100C60009989AA89BB89282339234A235B23888948
:100C70009989AA89BB89281739074A075B0711F4A4
:100C800081E08F838F81882359F18C899D89AE897A
:100C9000BF8988279927AA27B170892B8A2B8B2B8C
:100CA00081F02B813C814D815E8188899989AA8957
:100CB000BB89822B932BA42BB52B8B839C83AD8379
:100CC000BE8388859985FC0180819181A281B38151
:100CD000B26029813A81AC01BD01C9010E94391875
:100CE0008E859F8589839A8329813A818C859D850C
:100CF0002817390709F063CF88859985FC01208181
:100D00003181428153818B819C81AD81BE818095EF
:100D10009095A095B09582239323A423B52328858D
:100D20003985F90180839183A283B3830E9498144B
:100D300088859985FC0180819181A281B381BC0164
:100D4000CD016D96CDBFDEBFDF91CF910895CF93DA
:100D5000DF9300D000D0CDB7DEB789839A834B8371
:100D60005C836D837E838B819C81AD81BE81298173
:100D70003A81AC01BD01C9010E949F050000269681
:100D8000CDBFDEBFDF91CF9108950F93CF93DF9357
:100D9000CDB7DEB72A97CDBFDEBF6A837B838C8356
:100DA0009D832E833F83488759870A8719828A85C6
:100DB000882399F42A813B814C815D818E819F81BA
:100DC000A885B98582239323A423B523892B8A2B55
:100DD0008B2BD1F081E0898317C02A813B814C8124
:100DE0005D818E819F81A885B985282339234A2377
:100DF0005B238E819F81A885B985281739074A070B
:100E00005B0711F481E0898389812A96CDBFDEBF1B
:100E1000DF91CF910F9108950F931F93CF93DF939D
:100E2000CDB7DEB72997CDBFDEBF8A839B834C83C6
:100E30005D836E837F8328873987288539858C81F8
:100E40009D81AE81BF816A817B8189019C01AD0159
:100E500087EA96E00E94C81F898389812996CDBFC1
:100E6000DEBFDF91CF911F910F910895CF93DF9354
:100E700000D01F92CDB7DEB78B839C8319821A8274
:100E80000E948B142091A2343091A3348B819C81D9
:100E9000820F931F8838934118F52091A234309126
:100EA000A3348B819C81280F391F8091A2349091AB
:100EB000A33482179307A0F48091A2349091A334B5
:100EC000865E9E4D89839A832091A2343091A3340B
:100ED0008B819C81820F931F8093A2349093A334C3
:100EE0000E94981489819A812496CDBFDEBFDF913C
:100EF000CF910895CF93DF931F921F92CDB7DEB7A6
:100F000089839A8300000F900F90DF91CF9108950D
:100F1000CF93DF931F921F92CDB7DEB789839A8359
:100F200089819A819C012D5F3F4F89819A81FC01C3
:100F30002183328329813A818FEF9FEFDC01F90110
:100F400083839483A583B68389819A819C012D5FD5
:100F50003F4F89819A81FC012783308789819A815B
:100F60009C012D5F3F4F89819A81FC012187328747
:100F700089819A81FC01108200000F900F90DF910F
:100F8000CF910895CF93DF931F921F92CDB7DEB715
:100F900089839A8389819A81FC01128613860000D5
:100FA0000F900F90DF91CF910895CF93DF9300D0F2
:100FB00000D0CDB7DEB78B839C836D837E838B811E
:100FC0009C81FC018181928189839A838D819E819C
:100FD00029813A81FC012483358389819A81FC012E
:100FE000268137818D819E81FC012683378389810B
:100FF0009A81FC01868197812D813E81FC012483A9
:10100000358389819A812D813E81FC012683378336
:101010008D819E812B813C81FC01228733878B81CE
:101020009C81FC01808121E0280F8B819C81FC0147
:10103000208300002696CDBFDEBFDF91CF910895BB
:10104000CF93DF93CDB7DEB72A97CDBFDEBF8F83B7
:10105000988769877A8789859A85FC018081918143
:10106000A281B3818B839C83AD83BE838B819C8162
:10107000AD81BE818F3F9F4FAF4FBF4F41F48F81F6
:101080009885FC018185928589839A8320C08F8110
:101090009885039689839A8307C089819A81FC0188
:1010A0008481958189839A8389819A81FC018481D5
:1010B0009581FC0120813181428153818B819C810A
:1010C000AD81BE8182179307A407B50730F78981E8
:1010D0009A81FC012481358189859A85FC012483CC
:1010E000358389859A85FC018481958129853A8596
:1010F000FC012683378389859A8529813A81FC0101
:101100002683378389819A8129853A85FC01248346
:10111000358389859A852F813885FC01228733871D
:101120008F819885FC01808121E0280F8F8198852F
:10113000FC01208300002A96CDBFDEBFDF91CF9156
:101140000895CF93DF9300D01F92CDB7DEB78B8386
:101150009C838B819C81FC018285938589839A8302
:101160008B819C81FC01848195812B813C81F901DB
:1011700026813781FC01268337838B819C81FC018A
:10118000868197812B813C81F90124813581FC0185
:101190002483358389819A81FC01218132818B816D
:1011A0009C812817390751F48B819C81FC01268191
:1011B000378189819A81FC01218332838B819C81D3
:1011C000FC011286138689819A81FC0180812FEFB0
:1011D000280F89819A81FC01208389819A81FC01F1
:1011E00080812496CDBFDEBFDF91CF9108951F93FC
:1011F000CF93DF93CDB7DEB780EA90E0FC01128198
:1012000080EA90E020EA30E0F9012281287FFC01A9
:101210002283812FDF91CF911F910895CF93DF9388
:10122000CDB7DEB72A97CDBFDEBF8D839E836F8398
:10123000788749875A878D819E8121E1FC0120832F
:101240008D819E8101978D839E838D819E8122E277
:10125000FC0120838D819E8101978D839E838D81EA
:101260009E8123E3FC0120838D819E8101978D83E4
:101270009E838F819885CC01A0E0B0E089839A831A
:10128000AB83BC8329818D819E81FC0120838D816C
:101290009E8101978D839E8389819A81AB81BC81D8
:1012A000892F9A2FAB2FBB2789839A83AB83BC836B
:1012B00029818D819E81FC0120838D819E810197F2
:1012C0008D839E8389819A81AB81BC81892F9A2FDE
:1012D000AB2FBB2789839A83AB83BC8329818D8104
:1012E0009E81FC0120838D819E8101978D839E8349
:1012F0008D819E8121E3FC0120838D819E81019758
:101300008D839E838D819E8120E8FC0120838D81C9
:101310009E8101978D839E838D819E8127E8FC01AC
:1013200020838D819E8101978D839E838D819E81F7
:10133000FC0110828D819E8101978D839E838D811A
:101340009E81FC0110828D819E8101978D839E83F9
:101350008D819E8122E0FC0120838D819E810197F9
:101360008D839E838D819E8123E0FC0120838D816E
:101370009E8101978D839E838D819E8124E0FC0157
:1013800020838D819E8101978D839E838D819E8197
:1013900025E0FC0120838D819E8101978D839E83B2
:1013A0008D819E8126E0FC0120838D819E810197A5
:1013B0008D839E838D819E8127E0FC0120838D811A
:1013C0009E8101978D839E838D819E8128E0FC0103
:1013D00020838D819E8101978D839E838D819E8147
:1013E00029E0FC0120838D819E8101978D839E835E
:1013F0008D819E8120E1FC0120838D819E8101975A
:101400008D839E838D819E8121E1FC0120838D81CE
:101410009E8101978D839E838D819E8122E1FC01B7
:1014200020838D819E8101978D839E838D819E81F6
:1014300023E1FC0120838D819E8101978D839E8312
:101440008D819E8124E1FC0120838D819E81019705
:101450008D839E838D819E8125E1FC0120838D817A
:101460009E8101978D839E838D819E8126E1FC0163
:1014700020838D819E8101978D839E838D819E81A6
:1014800027E1FC0120838D819E8101978D839E83BE
:101490008D819E8128E1FC0120838D819E810197B1
:1014A0008D839E838D819E8129E1FC0120838D8126
:1014B0009E8101978D839E838D819E8120E2FC0118
:1014C00020838D819E8101978D839E838D819E8156
:1014D00021E2FC0120838D819E8101978D839E8373
:1014E0008D819E8122E2FC0120838D819E81019766
:1014F0008D839E838D819E8123E2FC0120838D81DB
:101500009E8101978D839E8389859A85CC01A0E079
:10151000B0E089839A83AB83BC8329818D819E81CE
:10152000FC0120838D819E8101978D839E8389811B
:101530009A81AB81BC81892F9A2FAB2FBB278983DE
:101540009A83AB83BC8329818D819E81FC0120839A
:101550008D819E8101978D839E838D819E8126E260
:10156000FC0120838D819E8101978D839E838D81D7
:101570009E8127E2FC0120838D819E8101978D83CE
:101580009E838D819E8128E2FC0120838D819E8136
:1015900001978D839E838D819E8129E2FC012083AA
:1015A0008D819E8101978D839E838D819E8120E315
:1015B000FC0120838D819E8101978D839E838D8187
:1015C0009E812A96CDBFDEBFDF91CF910895CF9344
:1015D000DF93CDB7DEB70E942E0CA091A434B0915A
:1015E000A5340D900DBE0D900EBEEF91DF91CF9101
:1015F000BF91AF919F918F917F916F915F914F912B
:101600003F912F911F910F91FF90EF90DF90CF901E
:10161000BF90AF909F908F907F906F905F904F9012
:101620003F902F901F900F90FF91F093A200FF9199
:10163000FFBFFF91089581E0DF91CF910895FF935F
:10164000FFB7FF93F091A200FF93F87FF093A20001
:101650000F921F9211242F923F924F925F926F929E
:101660007F928F929F92AF92BF92CF92DF92EF9232
:10167000FF920F931F932F933F934F935F936F931B
:101680007F938F939F93AF93BF93CF93DF93EF930A
:10169000A091A434B091A5340DB60D920EB60D9262
:1016A0000E946616A091A434B091A5340D900DBE91
:1016B0000D900EBEEF91DF91CF91BF91AF919F91B1
:1016C0008F917F916F915F914F913F912F911F91DA
:1016D0000F91FF90EF90DF90CF90BF90AF909F90D1
:1016E0008F907F906F905F904F903F902F901F90C2
:1016F0000F90FF91F093A200FF91FFBFFF9108951B
:1017000000001F93CF93DF931F92CDB7DEB789837D
:1017100080916535982F8981892B8093653580EA82
:1017200090E0FC018081813061F080EA90E0FC0172
:101730008081823031F080EA90E0FC018081843049
:1017400079F480916535882359F00E94F708182FA5
:10175000109265350E94661680EA90E0FC011283C3
:1017600000000F90DF91CF911F9108951F93CF93A9
:10177000DF93CDB7DEB70E94F708182F0E945615E9
:1017800080EA90E0FC0112830000DF91CF911F916D
:101790000895FF93FFB7FF93F091A200FF93F87FA6
:1017A000F093A2000F921F9211242F923F924F921A
:1017B0005F926F927F928F929F92AF92BF92CF92E1
:1017C000DF92EF92FF920F931F932F933F934F93CC
:1017D0005F936F937F938F939F93AF93BF93CF93B9
:1017E000DF93EF93A091A434B091A5340DB60D9280
:1017F0000EB60D920E94B60B81E00E94810BA09163
:10180000A434B091A5340D900DBE0D900EBEEF9195
:10181000DF91CF91BF91AF919F918F917F916F9108
:101820005F914F913F912F911F910F91FF90EF90FA
:10183000DF90CF90BF90AF909F908F907F906F90F0
:101840005F904F903F902F901F900F90FF91F093DB
:10185000A200FF91FFBFFF9118950000CF93DF9387
:1018600000D01F92CDB7DEB780E09DE7A0E0B0E0EA
:1018700089839A83AB83BC8389819A81AB81BC8144
:10188000689415F8B695A795979587951694D1F70E
:1018900089839A83AB83BC8389819A81AB81BC8124
:1018A0000197A109B10989839A83AB83BC8380E046
:1018B00098E029813A81FC0126A337A365E080E006
:1018C00098E00E945B0361E080E098E00E9493034F
:1018D00000002496CDBFDEBFDF91CF910895CF9356
:1018E000DF93CDB7DEB72597CDBFDEBF8B839C835B
:1018F0006D838B819C8189839A83F091A200FF93F1
:10190000F87FF093A20089819A81FC018081918106
:1019100029813A81F901278D422F50E029813A81AE
:10192000F90120A1222F30E0429FB001439F700DAA
:10193000529F700D11249B01280F391F89819A81B4
:10194000FC012283338389819A81FC01168E89816F
:101950009A81FC012081318189819A81FC01248353
:10196000358389819A81FC018081918129813A8125
:10197000F901278D222F30E0A90141505109298119
:101980003A81F90120A1222F30E0429FB001439F0C
:10199000700D529F700D11249B01280F391F8981F2
:1019A0009A81FC012683378389819A812FEFFC017C
:1019B00021A389819A812FEFFC0122A38D818823A5
:1019C00081F489819A81FC0180858823A1F0898135
:1019D0009A8108960E94D117882369F00E941F0BF4
:1019E0000AC089819A8108960E94880789819A8114
:1019F00043960E948807FF91F093A20081E025960C
:101A0000CDBFDEBFDF91CF9108950F931F93CF938A
:101A1000DF93CDB7DEB72997CDBFDEBF8F83688751
:101A200049878885882319F419821A820FC08F810B
:101A3000482F50E08885282F30E0429FC001439F07
:101A4000900D529F900D112489839A8389819A81E8
:101A500085960E9436078B839C838B819C81892B82
:101A600081F08B819C8185968D839E832B813C8127
:101A70008D819E8189012985AC0168858F810E94B5
:101A80004B0D8B819C812996CDBFDEBFDF91CF911D
:101A90001F910F9108950F931F93CF93DF93CDB7AD
:101AA000DEB72797CDBFDEBF89836A834B835C8314
:101AB0002D830E831F838A81882341F48E819F8129
:101AC0002E813F81FC012083318307C08E819F815D
:101AD0002B813C81FC01208331838E819F81298170
:101AE000FC01278F8E819F812A81FC0120A38E819A
:101AF0009F8161E00E946F0C8E819F812D81FC018E
:101B000024A300002796CDBFDEBFDF91CF911F91A8
:101B10000F9108950F93CF93DF93CDB7DEB7629700
:101B2000CDBFDEBF8A879B876C877D872E873F87E7
:101B3000488B598B0A8B19828A859B858A839B8364
:101B4000F091A200FF93F87FF093A2008A819B811D
:101B5000FC01268D8A819B81FC01878D281718F056
:101B60008A89823019F52C853D858A819B814A8935
:101B7000B9010E94880F8C838A819B81FC01838933
:101B8000882351F08A819B8143960E94D117882334
:101B900041F00E941F0B05C08C81882311F00E9428
:101BA0001F0BFF91F093A20081E06FC08E859F858F
:101BB000A889B989892B8A2B8B2B29F4FF91F09363
:101BC000A20080E062C08981882331F4CE010596AD
:101BD0000E949C1881E08983FF91F093A2000E94EB
:101BE0008B14F091A200FF93F87FF093A2008A81FA
:101BF0009B81FC0181A18F3F21F48A819B81FC01A3
:101C000011A28A819B81FC0182A18F3F21F48A81EC
:101C10009B81FC0112A2FF91F093A2009E01225F22
:101C20003F4FCE010596B9010E94BF18882331F5B8
:101C30008A819B810E9413118823C9F08E859F851C
:101C4000A889B9892A813B81285F3F4FAC01BD013A
:101C5000C9010E9436178A819B810E948D100E94C3
:101C60009814882309F06CCF0E941F0B69CF8A81DA
:101C70009B810E948D100E94981462CF8A819B8163
:101C80000E948D100E94981480E06296CDBFDEBF46
:101C9000DF91CF910F910895CF93DF93CDB7DEB74A
:101CA0002C97CDBFDEBF8E839F83688779874A8755
:101CB0005B872C878E819F818A839B830E94F70894
:101CC0008C838A819B81FC01268D8A819B81FC010A
:101CD000878D281718F08C85823089F58A819B8141
:101CE000FC0182A18D83288539858A819B814C8561
:101CF000B9010E94880F8D818F3FB9F48A819B8141
:101D0000FC0183898823C1F08A819B8143960E94CC
:101D1000D117882389F08A859B85892B69F08A856C
:101D20009B8521E0FC01208307C08D818F5F282FD8
:101D30008A819B81FC0122A381E0898301C01982F1
:101D400080EA90E02C81FC01228389812C96CDBF12
:101D5000DEBFDF91CF910895CF93DF93CDB7DEB78C
:101D60006197CDBFDEBF8A879B876C877D872E8773
:101D70003F87488B598B19828A859B858A839B83F1
:101D8000F091A200FF93F87FF093A2008A819B81DB
:101D9000FC01868D8C838C81882311F12C853D85F7
:101DA0008A819B81B9010E943D108C812FEF280F01
:101DB0008A819B81FC01268F8A819B81FC01808521
:101DC000882349F08A819B8108960E94D117882335
:101DD00011F00E941F0BFF91F093A20081E076C0EA
:101DE0008E859F85A889B989892B8A2B8B2B29F40D
:101DF000FF91F093A20080E069C08981882331F4CB
:101E0000CE0105960E949C1881E08983FF91F09392
:101E1000A2000E948B14F091A200FF93F87FF09330
:101E2000A2008A819B81FC0181A18F3F21F48A81DC
:101E30009B81FC0111A28A819B81FC0182A18F3FC1
:101E400021F48A819B81FC0112A2FF91F093A200F0
:101E50009E01225F3F4FCE010596B9010E94BF1837
:101E6000882331F58A819B810E94F2108823C9F072
:101E70008E859F85A889B9892A813B812D5E3F4F38
:101E8000AC01BD01C9010E9436178A819B810E9465
:101E90008D100E949814882309F072CF0E941F0BA6
:101EA0006FCF8A819B810E948D100E94981468CF09
:101EB0008A819B810E948D100E9498148A819B8147
:101EC0000E94F210882309F45BCF80E06196CDBFB9
:101ED000DEBFDF91CF910895CF93DF9300D0CDB7D0
:101EE000DEB78A839B83F091A200FF93F87FF09383
:101EF000A2008A819B81FC01868D8983FF91F093EA
:101F0000A20089812396CDBFDEBFDF91CF910895D6
:101F1000CF93DF93CDB7DEB72797CDBFDEBF8B83DF
:101F20009C836D837E834F831A828B819C81FC010D
:101F3000868D89838B819C81FC0180A1882309F493
:101F40008EC08F818823D9F58B819C81FC0180A173
:101F5000482F50E08B819C81FC01848195812D81EB
:101F60003E81B9010E940A328B819C81FC0124814F
:101F700035818B819C81FC0180A1882F90E0280F06
:101F8000391F8B819C81FC01248335838B819C814B
:101F9000FC01248135818B819C81FC0182819381AC
:101FA0002817390708F45BC08B819C81FC012081D4
:101FB00031818B819C81FC012483358350C08B81CE
:101FC0009C81FC0180A1482F50E08B819C81FC0109
:101FD000868197812D813E81B9010E940A328B81D1
:101FE0009C81FC01268137818B819C81FC0180A131
:101FF000882F90E0919581959109280F391F8B8149
:102000009C81FC01268337838B819C81FC01268186
:1020100037818B819C81FC01808191812817390750
:10202000A8F48B819C81FC01228133818B819C816E
:10203000FC0180A1882F90E0919581959109280F4E
:10204000391F8B819C81FC01268337838F818230ED
:1020500031F48981882319F08981815089838981AC
:1020600021E0280F8B819C81FC01268F8A81279695
:10207000CDBFDEBFDF91CF910895CF93DF9300D026
:102080001F92CDB7DEB789839A836B837C83898166
:102090009A81FC0180A18823C9F189819A81FC0180
:1020A0002681378189819A81FC0180A1882F90E067
:1020B000280F391F89819A81FC0126833783898102
:1020C0009A81FC012681378189819A81FC01828174
:1020D00093812817390750F089819A81FC0120816A
:1020E000318189819A81FC012683378389819A8194
:1020F000FC0180A1482F50E089819A81FC01268152
:1021000037818B819C81B9010E940A32000024969C
:10211000CDBFDEBFDF91CF910895CF93DF9300D085
:102120001F92CDB7DEB78B839C83F091A200FF9303
:10213000F87FF093A2008B819C81FC0182A18983AE
:1021400012C08B819C81FC018389882381F08B8163
:102150009C8143960E94D117882311F00E94671931
:10216000898181508983898118165CF301C0000040
:102170008B819C812FEFFC0122A3FF91F093A200A1
:10218000F091A200FF93F87FF093A2008B819C81D5
:10219000FC0181A18A8312C08B819C81FC01808516
:1021A000882381F08B819C8108960E94D117882317
:1021B00011F00E9467198A8181508A838A811816DA
:1021C0005CF301C000008B819C812FEFFC0121A3F7
:1021D000FF91F093A20000002496CDBFDEBFDF91F7
:1021E000CF910895CF93DF9300D0CDB7DEB78A8328
:1021F0009B83F091A200FF93F87FF093A2008A8165
:102200009B81FC01868D882319F481E0898301C0BC
:102210001982FF91F093A20089812396CDBFDEBF82
:10222000DF91CF910895CF93DF9300D0CDB7DEB784
:102230008A839B83F091A200FF93F87FF093A20022
:102240008A819B81FC01268D8A819B81FC01878D7F
:10225000281719F481E0898301C01982FF91F09356
:10226000A20089812396CDBFDEBFDF91CF91089573
:10227000CF93DF93CDB7DEB72997CDBFDEBF8B837A
:102280009C834D835E836F83788729878B819C81B4
:1022900089839A83F091A200FF93F87FF093A200C4
:1022A00089819A81FC0181A18F3F21F489819A81E2
:1022B000FC0111A289819A81FC0182A18F3F21F446
:1022C00089819A81FC0112A2FF91F093A200898179
:1022D0009A81FC01868D882371F489819A81FC01A1
:1022E00073968D819E81AF81B8852985AC01BD0132
:1022F000CF010E949D1789819A810E948D10000054
:102300002996CDBFDEBFDF91CF9108958F929F9226
:10231000AF92BF92CF92DF92EF92FF920F931F93F3
:10232000CF93DF93CDB7DEB76097CDBFDEBF8E838F
:102330009F83688779874A875B872C873D870E87CD
:10234000EF86F88A8A859B850E9436078C839D8359
:102350008C819D81892BB9F08CE290E00E94360738
:1023600089839A8389819A81892B41F089819A8115
:102370002C813D81FC01238F348F07C08C819D818E
:102380000E947A0702C019821A8289819A81892B58
:1023900009F18A859B85CC01A0E0B0E009811A8112
:1023A0004F8558892C853D8568857985EE81FF812B
:1023B000812C912C58016A01EE8489019C01AD01A8
:1023C000CF010E94FD1189819A810E94D31281E080
:1023D0008B8302C08FEF8B838B816096CDBFDEBF76
:1023E000DF91CF911F910F91FF90EF90DF90CF90F1
:1023F000BF90AF909F908F9008958F929F92AF92D1
:10240000BF92CF92DF92EF92FF920F931F93CF93E1
:10241000DF93CDB7DEB76497CDBFDEBF8C839D83DE
:102420006E837F83288739874A875B870C871D8760
:10243000EE86CF86D88AA98ABA8A8B8A9C8A288512
:10244000398589899A89FC01838D948DA90165EA72
:1024500070E00E94133289899A89FC01238D348DA2
:10246000888599850197820F931F8A839B831982A0
:1024700021C08981882F90E02981222F30E04E8170
:102480005F81240F351FF901408129893A89820F24
:10249000931F4D96FC0140838981882F90E02E8107
:1024A0003F81820F931FFC018081882339F089814D
:1024B0008F5F898389818830E0F201C000008989BB
:1024C0009A89FC0114A28E85843010F083E08E87F7
:1024D00089899A892E85FC01228F89899A89029699
:1024E0000E94C20789899A890E960E94C20789892B
:1024F0009A8929893A89FC01228733878E85882F1A
:1025000090E0A0E0B0E024E030E040E050E079016D
:102510008A01E81AF90A0A0B1B0BD801C70129899D
:102520003A89F90186879787A08BB18B89899A8927
:1025300029893A89FC01268B378B89899A89FC0184
:1025400017A210A611A612A689899A89FC0113A6C2
:102550004C855D852C813D818A819B81B9010E94DA
:102560000E099C0189899A89FC01208331838F851A
:102570009889892B39F08F85988929893A89FC01B6
:102580002083318300006496CDBFDEBFDF91CF9101
:102590001F910F91FF90EF90DF90CF90BF90AF9081
:1025A0009F908F900895CF93DF931F921F92CDB786
:1025B000DEB789839A83F091A200FF93F87FF093AE
:1025C000A200809102358F5F809302358091A43400
:1025D0009091A534892B69F489819A818093A434E0
:1025E0009093A534809102358130C9F40E948519F9
:1025F00016C080910835882391F48091A43490917D
:10260000A534FC01228D89819A81FC01828D82177B
:1026100030F089819A818093A4349093A53480917D
:102620000C358F5F80930C3520910C3589819A8110
:10263000FC0125A389819A81FC01928D8091073547
:10264000891730F489819A81FC01828D8093073546
:1026500089819A81AC014E5F5F4F89819A81FC012B
:10266000828D282F30E06BE0629FC001639F900D48
:1026700011248A559B4CBA010E94D507FF91F09313
:10268000A20080910835882371F08091A434909144
:10269000A534FC01228D89819A81FC01828D281745
:1026A00010F40E941F0B00000F900F90DF91CF914C
:1026B0000895EF92FF920F931F93CF93DF93CDB7BF
:1026C000DEB76097CDBFDEBF8B879C874D875E8767
:1026D0006F87788B19820E948B14809103359091BB
:1026E0000435A0910535B09106358A839B83AC8370
:1026F000BD838B859C85FC01208131814281538182
:102700008D859E85AF85B889820F931FA41FB51F45
:102710008E839F83A887B9878B859C85FC01208148
:102720003181428153818A819B81AC81BD81821735
:102730009307A407B50700F58B859C85FC012081D4
:102740003181428153818E819F81A885B98582170D
:102750009307A407B50778F52E813F8148855985F1
:102760008A819B81AC81BD8182179307A407B5073D
:1027700010F581E089831FC08B859C85FC01208139
:102780003181428153818E819F81A885B9858217CD
:102790009307A407B50768F02E813F8148855985C6
:1027A0008A819B81AC81BD8182179307A407B507FD
:1027B00010F481E089832B853C858E819F81A885DB
:1027C000B985F90180839183A283B38389818823AA
:1027D000A9F02E813F81488559858A819B81AC81F2
:1027E000BD8179018A01E81AF90A0A0B1B0BD8018D
:1027F000C70140E0BC01CD010E94621A0E949814FA
:102800008A878A85882311F40E941F0B0000609636
:10281000CDBFDEBFDF91CF911F910F91FF90EF9061
:102820000895CF93DF93CDB7DEB72597CDBFDEBF39
:102830006A837B838C839D8319828A819B81AC818F
:10284000BD81892B8A2B8B2B71F00E948B148A817E
:102850009B81AC81BD8140E0BC01CD010E94621A28
:102860000E94981489838981882311F40E941F0B88
:1028700000002596CDBFDEBFDF91CF910895EF9286
:10288000FF920F93CF93DF931F92CDB7DEB70F2E3A
:10289000F1E1EF2EF5E3FF2EF02D00E020E030E037
:1028A00048EC50E064E070E282E799E10E94861112
:1028B00089838981813019F40E94031B898389816E
:1028C000813009F580EA90E020EA30E0F9012281C8
:1028D000287FFC0122838FEF9FEFDC0180930D3571
:1028E00090930E35A0930F35B093103581E080930F
:1028F0000835109203351092043510920535109268
:1029000006350E94E70A00000F90DF91CF910F91EA
:10291000FF90EF900895CF93DF93CDB7DEB780910E
:1029200013358F5F809313350000DF91CF910895A9
:10293000CF93DF9300D01F92CDB7DEB719821A82F2
:102940001B82F091A200FF93F87FF093A200809188
:10295000133581508093133580911335882309F006
:1029600074C080910235882309F46FC046C08091FD
:10297000F3349091F434FC018085918589839A83A6
:1029800089819A810E960E94A10889819A81029676
:102990000E94A10889819A81FC01928D809107355E
:1029A000891730F489819A81FC01828D80930735E3
:1029B00089819A81AC014E5F5F4F89819A81FC01C8
:1029C000828D282F30E06BE0629FC001639F900DE5
:1029D00011248A559B4CBA010E94D50789819A819E
:1029E000FC01228D8091A4349091A534FC01828D4C
:1029F000281718F081E080930A358091EC34882301
:102A000009F0B5CF89819A81892B11F00E94C819EC
:102A1000809109358C838C81882379F00E9456152A
:102A2000882319F081E080930A358C8181508C8352
:102A30008C81882399F71092093580910A35882373
:102A400021F081E08B830E941F0BFF91F093A20085
:102A50008B812496CDBFDEBFDF91CF910895CF93B8
:102A6000DF9300D01F92CDB7DEB7F091A200FF93A5
:102A7000F87FF093A2008091033590910435A091E6
:102A80000535B091063589839A83AB83BC83FF916A
:102A9000F093A20089819A81AB81BC81BC01CD01F8
:102AA0002496CDBFDEBFDF91CF910895CF93DF9302
:102AB000CDB7DEB72D97CDBFDEBF1982809113351C
:102AC000882309F0F1C08091033590910435A091DD
:102AD0000535B09106350196A11DB11D8A839B83F2
:102AE000AC83BD838A819B81AC81BD81809303359A
:102AF00090930435A0930535B09306358A819B8168
:102B0000AC81BD81892B8A2B8B2BD9F48091E83441
:102B10009091E9348E839F838091EA349091EB34D5
:102B20008093E8349093E9348E819F818093EA34D6
:102B30009093EB3480910B358F5F80930B350E941F
:102B4000C81980910D3590910E35A0910F35B09137
:102B500010352A813B814C815D81281739074A074E
:102B60005B0708F48AC08091E8349091E934FC0155
:102B70008081882361F48FEF9FEFDC0180930D3516
:102B800090930E35A0930F35B093103576C0809199
:102B9000E8349091E934FC0187819085FC018085BF
:102BA00091858887998788859985FC0182819381A1
:102BB000A481B5818A879B87AC87BD872A813B81A9
:102BC0004C815D818A859B85AC85BD852817390739
:102BD0004A075B0768F48A859B85AC85BD85809331
:102BE0000D3590930E35A0930F35B093103545C039
:102BF0008885998502960E94A10888859985FC019F
:102C0000808D918D892B29F0888599850E960E945B
:102C1000A10888859985FC01928D809107358917D7
:102C200030F488859985FC01828D809307358885ED
:102C30009985AC014E5F5F4F88859985FC01828D37
:102C4000282F30E06BE0629FC001639F900D11243C
:102C50008A559B4CBA010E94D50788859985FC014D
:102C6000228D8091A4349091A534FC01828D281787
:102C700008F479CF81E0898376CF8091A434909154
:102C8000A534FC01828D282F30E04BE0429FC0012B
:102C9000439F900D11248A559B4CFC01808182300A
:102CA00040F081E0898305C0809109358F5F809372
:102CB000093580910A35882311F081E08983898163
:102CC0002D96CDBFDEBFDF91CF910895CF93DF93D7
:102CD000CDB7DEB72997CDBFDEBF809113358823EE
:102CE00021F081E080930A35BAC010920A358091B4
:102CF000A4349091A534FC01838D948D8A839B83A9
:102D000085EA95EADC018C839D83AE83BF838A814B
:102D10009B81FC0120813181428153818C819D8185
:102D2000AE81BF81281739074A075B0799F58A8169
:102D30009B810496FC0120813181428153818C81E9
:102D40009D81AE81BF81281739074A075B0711F5BE
:102D50008A819B810896FC012081318142815381C7
:102D60008C819D81AE81BF81281739074A075B0797
:102D700089F48A819B810C96FC01208131814281FA
:102D800053818C819D81AE81BF81281739074A0705
:102D90005B0771F08091A4349091A5349C01235E6F
:102DA0003F4F8091A4349091A534B9010E94AF03A4
:102DB00080910735898303C0898181508983898106
:102DC000282F30E04BE0429FC001439F900D11241B
:102DD0008A559B4CFC018081882371F38981282FBF
:102DE00030E04BE0429FC001439F900D11248A5573
:102DF0009B4C8887998788859985FC018181928180
:102E0000FC012481358188859985FC0121833283E9
:102E100088859985FC012181328188859985039671
:102E20002817390769F488859985FC018181928189
:102E3000FC012481358188859985FC0121833283B9
:102E400088859985FC0181819281FC01808591852D
:102E50008093A4349093A534898180930735000032
:102E60002996CDBFDEBFDF91CF910895CF93DF9339
:102E700000D000D0CDB7DEB789839A834B835C83C3
:102E80006D837E838091A4349091A5349C01225F50
:102E90003F4F89819A81B9010E9420088B819C81D2
:102EA000AD81BE8141E0BC01CD010E94621A0000EB
:102EB0002696CDBFDEBFDF91CF9108950F931F936C
:102EC000CF93DF93CDB7DEB72A97CDBFDEBF89831F
:102ED0009A834B835C836D837E830F831887298756
:102EE0003A872091A4343091A5348B819C81AD81A7
:102EF000BE81B068F90186879787A08BB18B8091DE
:102F0000A4349091A5349C01225F3F4F89819A811E
:102F1000B9010E94D5078F819885A985BA8541E0BE
:102F2000BC01CD010E94621A00002A96CDBFDEBF0F
:102F3000DF91CF911F910F910895CF93DF93CDB77C
:102F4000DEB72797CDBFDEBF89839A834B835C832F
:102F50006D837E832F838091A4349091A5349C014E
:102F6000225F3F4F89819A81B9010E94D5078F81E5
:102F7000882339F08FEF9FEFDC018B839C83AD8337
:102F8000BE838B819C81AD81BE814F81BC01CD010F
:102F90000E94621A00002796CDBFDEBFDF91CF915D
:102FA0000895CF93DF93CDB7DEB72597CDBFDEBFB2
:102FB0008C839D838C819D81FC0187819085FC01A0
:102FC000808591858A839B838A819B810E960E944E
:102FD000A10880911335882351F58A819B8102963F
:102FE0000E94A1088A819B81FC01928D8091073506
:102FF000891730F48A819B81FC01828D809307358B
:103000008A819B81AC014E5F5F4F8A819B81FC016D
:10301000828D282F30E06BE0629FC001639F900D8E
:1030200011248A559B4CBA010E94D50708C08A8199
:103030009B810E96BC018CEE94E30E94D5078A8199
:103040009B81FC01228D8091A4349091A534FC01D8
:10305000828D821730F481E0898381E080930A3584
:1030600001C0198289812596CDBFDEBFDF91CF9146
:103070000895CF93DF93CDB7DEB72897CDBFDEBFDE
:103080008B839C834D835E836F8378878D819E8144
:10309000AF81B885B0682B813C81F9018083918331
:1030A000A283B3838B819C81FC0180859185898378
:1030B0009A838B819C810E94A10889819A810296C2
:1030C0000E94A10889819A81FC01928D8091073527
:1030D000891730F489819A81FC01828D80930735AC
:1030E00089819A81AC014E5F5F4F89819A81FC0191
:1030F000828D282F30E06BE0629FC001639F900DAE
:1031000011248A559B4CBA010E94D50789819A8166
:10311000FC01228D8091A4349091A534FC01828D14
:10312000821718F481E080930A3500002896CDBFFD
:10313000DEBFDF91CF910895CF93DF931F921F924F
:10314000CDB7DEB789839A8320910B3589819A8127
:10315000FC0120838091033590910435A0910535C1
:10316000B091063529813A81F90181839283A38345
:10317000B48300000F900F90DF91CF910895EF92EC
:10318000FF920F931F93CF93DF93CDB7DEB72D97A9
:10319000CDBFDEBF8A879B876C877D87F091A200B9
:1031A000FF93F87FF093A20080910335909104354E
:1031B000A0910535B09106358A839B83AC83BD838E
:1031C0008A859B85FC0181819281A381B4812A81BA
:1031D0003B814C815D8179018A01E81AF90A0A0B69
:1031E0001B0BD801C7018E839F83A887B9878C8565
:1031F0009D85FC0180819181A281B3818F3F9F4F8A
:10320000AF4FBF4F11F4198254C08A859B85FC01D2
:10321000908180910B35981799F08A859B85FC01E8
:1032200021813281438154818A819B81AC81BD811E
:1032300082179307A407B50718F081E0898339C086
:103240008C859D85FC0120813181428153818E8155
:103250009F81A885B98582179307A407B50700F554
:103260008C859D85FC0120813181428153818E8135
:103270009F81A885B98579018A01E81AF90A0A0BA4
:103280001B0BD801C7012C853D85F90180839183F3
:10329000A283B3838A859B850E949C18198209C0EA
:1032A0008C859D85FC01108211821282138281E03F
:1032B0008983FF91F093A20089812D96CDBFDEBF57
:1032C000DF91CF911F910F91FF90EF900895CF93D1
:1032D000DF93CDB7DEB781E080930A350000DF9140
:1032E000CF910895CF93DF931F921F92CDB7DEB792
:1032F00089839A830E94C0198091A634823010F08D
:103300000E941F0B0E946120F5CFCF93DF931F9285
:10331000CDB7DEB7198210C08981282F30E04BE08D
:10332000429FC001439F900D11248A559B4C0E94DF
:10333000880789818F5F89838981843068F382ED72
:1033400094E30E9488078DED94E30E9488078CEE39
:1033500094E30E94880787EF94E30E94880782ED38
:1033600094E38093E8349093E9348DED94E3809373
:10337000EA349093EB3400000F90DF91CF910895E1
:10338000CF93DF93CDB7DEB70000DF91CF910895E3
:10339000CF93DF931F921F92CDB7DEB78091E834B1
:1033A0009091E934FC018081882361F48FEF9FEFD5
:1033B000DC0180930D3590930E35A0930F35B093BB
:1033C00010351BC08091E8349091E934FC0187816D
:1033D0009085FC018085918589839A8389819A8172
:1033E000FC0182819381A481B58180930D359093F6
:1033F0000E35A0930F35B093103500000F900F904D
:10340000DF91CF910895CF93DF931F92CDB7DEB7B1
:1034100080910835882319F481E0898308C0809160
:103420001335882319F482E0898301C019828981C8
:103430000F90DF91CF910895EF92FF920F931F931A
:10344000CF93DF9300D01F92CDB7DEB78091A43425
:103450009091A534FC0186859785A089B1898983DF
:103460009A83AB83BC836091A4347091A53480911E
:10347000A4349091A534FC01828D882F90E0A0E0C7
:10348000B0E024E030E040E050E079018A01E81A41
:10349000F90A0A0B1B0BD801C701FB018687978726
:1034A000A08BB18B89819A81AB81BC81BC01CD019C
:1034B0002496CDBFDEBFDF91CF911F910F91FF907A
:1034C000EF900895CF93DF93CDB7DEB72D97CDBFA3
:1034D000DEBF69877A878B879C874D87809103350C
:1034E00090910435A0910535B091063589839A8372
:1034F000AB83BC838091A4349091A53402960E9442
:10350000A10889859A85AB85BC858F3F9F4FAF4FBA
:10351000BF4F71F48D85882359F08091A434909128
:10352000A5340296BC0187EF94E30E94D50764C0DE
:1035300029813A814B815C8189859A85AB85BC85DF
:10354000820F931FA41FB51F8D839E83AF83B887FF
:103550002091A4343091A5348D819E81AF81B885AE
:10356000F90182839383A483B5832D813E814F81AA
:10357000588589819A81AB81BC81281739074A0710
:103580005B0778F48091A4349091A5349C012E5F60
:103590003F4F8091EA349091EB34B9010E942008AA
:1035A0002BC08091A4349091A5349C012E5F3F4F95
:1035B0008091E8349091E934B9010E94200880910B
:1035C0000D3590910E35A0910F35B09110352D81AC
:1035D0003E814F815885281739074A075B0760F4F9
:1035E0008D819E81AF81B88580930D3590930E3586
:1035F000A0930F35B093103500002D96CDBFDEBFE0
:10360000DF91CF910895EF92FF920F93CF93DF93C5
:103610001F92CDB7DEB719820E94941F80912E357C
:1036200090912F35892B91F00F2EF0E3EF2EF5E3DB
:10363000FF2EF02D03E020E030E048EC50E069E0A0
:1036400070E289E19CE10E948611898389810F9053
:10365000DF91CF910F91FF90EF900895CF92DF927D
:10366000EF92FF920F931F93CF93DF93CDB7DEB707
:103670006797CDBFDEBF8B879C876D872E873F877F
:10368000488B598B0A8B1B8BCC8ADD8AEE8AFF8A8A
:10369000198280912E3590912F35892B09F444C0E1
:1036A0008D858A838E859F85A889B9898B839C8324
:1036B000AD83BE838B859C858F8398878D8586306F
:1036C00034F50E94031A823099F4E0912E35F0917E
:1036D0002F358C899D89AE89BF89BE016E5F7F4F72
:1036E00000E09C01AD01CF010E948A0D89831CC0BE
:1036F00080912E3590912F35BE016E5F7F4F00E097
:1037000020E030E0A9010E948A0D89830DC08091DC
:103710002E3590912F354A895B89BE016E5F7F4FB0
:1037200020E00E944C0E898389816796CDBFDEBF61
:10373000DF91CF911F910F91FF90EF90DF90CF908D
:103740000895CF92DF92EF92FF920F931F93CF9342
:10375000DF93CDB7DEB72B97CDBFDEBF6C837D8304
:103760008E839F83288739874A875B8780912A3594
:1037700090912B35FC0187819085FC018085918596
:1037800089839A8389819A8102960E94A1088981FE
:103790009A81FC0182898130B1F589819A81FC018D
:1037A00026853785408951898C819D81AE81BF8175
:1037B000820F931FA41FB51FEC80FD800E811F8117
:1037C000288539854A855B85E981FA816701780119
:1037D00089019A01AC01BD01CF010E94371D8823E8
:1037E00091F08C819D81AE81BF81E981FA81C12CEC
:1037F000D12C760100E010E09C01AD0160E0CF012A
:103800000E942E1B8B8389819A81FC012589368930
:1038100089819A81F901199500002B96CDBFDEBFF1
:10382000DF91CF911F910F91FF90EF90DF90CF909C
:103830000895CF93DF93CDB7DEB72797CDBFDEBF17
:103840008E839F83CE0105960E94B41CDC01CB01C0
:1038500089839A83AB83BC832D8189819A81AB81D3
:10386000BC81422FBC01CD010E94391C0E94D01D99
:10387000E9CFEF92FF920F931F93CF93DF93CDB7D2
:10388000DEB72A97CDBFDEBF6E837F838887998797
:103890004A870E948B14CE0105960E94F21CDC011F
:1038A000CB0189839A83AB83BC838D81882309F004
:1038B0004EC08A858823E1F42E813F814885598551
:1038C00089819A81AB81BC8182179307A407B507D0
:1038D00078F00E94981429813A814B815C818E8115
:1038E0009F81A885B985BC01CD010E94A11B31C073
:1038F0008A85882359F080912C3590912D35FC01D3
:10390000908181E0992309F080E08A872E813F81B0
:103910004885598589819A81AB81BC8179018A0169
:10392000E81AF90A0A0B1B0BD801C701E0912E35E2
:10393000F0912F352A85AC01BD01CF010E943811CD
:103940000E949814882329F40E941F0B02C00E9431
:10395000981400002A96CDBFDEBFDF91CF911F9152
:103960000F91FF90EF900895CF93DF9300D000D098
:10397000CDB7DEB78D839E8380912A3590912B350C
:10398000FC01908181E0992309F080E0282F8D814E
:103990009E81FC0120838D819E81FC018081882392
:1039A00089F480912A3590912B35FC01878190858F
:1039B000FC0180819181A281B38189839A83AB8349
:1039C000BC8304C019821A821B821C8289819A815D
:1039D000AB81BC81BC01CD012696CDBFDEBFDF919E
:1039E000CF910895CF93DF9300D000D0CDB7DEB74D
:1039F0008D839E830E942F15DC01CB0189839A83DE
:103A0000AB83BC838091323590913335A0913435AE
:103A1000B091353529813A814B815C81281739076E
:103A20004A075B0740F40E94DA1E8D819E8121E0E7
:103A3000FC01208304C08D819E81FC01108289815C
:103A40009A81AB81BC818093323590933335A093BA
:103A50003435B093353589819A81AB81BC81BC0105
:103A6000CD012696CDBFDEBFDF91CF910895CF92D5
:103A7000DF92EF92FF920F931F93CF93DF93CDB717
:103A8000DEB72F97CDBFDEBF8A839B834C835D83D8
:103A90006E837F83088719872A873B87CC86DD86DC
:103AA000EE86FF8619822A813B818C819D81AE81C1
:103AB000BF81F90182839383A483B5838A819B812B
:103AC0002A813B81FC01228733872C813D814E81F5
:103AD0005F8188859985AA85BB8582179307A4078E
:103AE000B50740F1288539854A855B858C859D859C
:103AF000AE85BF85281B390B4A0B5B0B8A819B81E6
:103B0000FC0186859785A089B189281739074A075E
:103B10005B0718F081E0898336C08A819B819C0114
:103B20002E5F3F4F80912C3590912D35B9010E9429
:103B3000200829C0288539854A855B858C859D8527
:103B4000AE85BF85281739074A075B0780F42C81AB
:103B50003D814E815F818C859D85AE85BF8528170F
:103B600039074A075B0718F081E089830CC08A8116
:103B70009B819C012E5F3F4F80912A3590912B3580
:103B8000B9010E94200889812F96CDBFDEBFDF9149
:103B9000CF911F910F91FF90EF90DF90CF900895FC
:103BA000CF92DF92EF92FF920F931F93CF93DF9309
:103BB000CDB7DEB76597CDBFDEBFE0C08A8588236D
:103BC000FCF4CE010A96019689839A8389819A81B1
:103BD000FC012081318189819A81FC018481958158
:103BE000A681B78149815A81FA010280F381E02DD3
:103BF000EC8BFD8BAC01BD018C899D89F901199578
:103C00008A8588230CF4BAC08F8598898B839C831E
:103C10008B819C81FC0184859585892B29F08B8182
:103C20009C8102960E94A108CE0143960E94F21C3C
:103C3000DC01CB018D839E83AF83B8878A85082EF4
:103C4000000C990B092E000CAA0BBB0B40E050E0B6
:103C500029E030E0841B950B2817390708F48DC044
:103C6000FC018827E250FF4F8F4F0C940232EB8407
:103C7000FC840D851E852B853C854D855E858B815D
:103C80009C81FC0186859785A089B189820F931F4D
:103C9000A41FB51F2D813E814F815885EB81FC818A
:103CA0006701780189019A01AC01BD01CF010E9431
:103CB000371D882309F462C08B819C81FC01258912
:103CC00036898B819C81F90119958B819C81FC013E
:103CD0008289813009F052C02B853C854D855E85F7
:103CE0008B819C81FC0186859785A089B189820F93
:103CF000931FA41FB51FEB81FC81C12CD12C760131
:103D000000E010E09C01AD0160E0CF010E942E1B9D
:103D1000898734C08B859C85AD85BE852B813C8190
:103D2000F90186879787A08BB18B8B819C81FC01E1
:103D300026853785408951898D819E81AF81B885DF
:103D4000820F931FA41FB51FED80FE800F81188581
:103D50002D813E814F815885EB81FC81670178017F
:103D600089019A01AC01BD01CF010E94371D06C037
:103D70008B819C810E947A0701C0000080912E35C2
:103D800090912F35BE01665F7F4F20E030E0A901A2
:103D90000E94AC0E882309F011CF00006596CDBFBC
:103DA000DEBFDF91CF911F910F91FF90EF90DF90D9
:103DB000CF900895CF92DF92EF92FF920F931F93CF
:103DC000CF93DF93CDB7DEB72D97CDBFDEBF82C0D7
:103DD00080912A3590912B35FC0187819085FC01DB
:103DE00080819181A281B38189839A83AB83BC83D3
:103DF00080912A3590912B35FC0187819085FC01BB
:103E0000808591858D839E838D819E8102960E94FF
:103E1000A1088D819E81FC01258936898D819E8135
:103E2000F90119958D819E81FC018289813009F00B
:103E300051C08D819E81FC0126853785408951893D
:103E400089819A81AB81BC81820F931FA41FB51F0A
:103E50008F839887A987BA872F81388549855A85A6
:103E600089819A81AB81BC8182179307A407B5072A
:103E7000F8F42D813E818F819885A985BA85F90155
:103E800082839383A483B5838D819E812D813E811E
:103E9000FC01228733878D819E819C012E5F3F4FDD
:103EA00080912A3590912B35B9010E94200812C0CB
:103EB00089819A81AB81BC81ED81FE81C12CD12C9D
:103EC000760100E010E09C01AD0160E0CF010E94AE
:103ED0002E1B8B8780912A3590912B35FC01808198
:103EE000882309F075CF80912A3590912B358C87E6
:103EF0009D8780912C3590912D3580932A35909314
:103F00002B358C859D8580932C3590932D35000025
:103F10002D96CDBFDEBFDF91CF911F910F91FF9006
:103F2000EF90DF90CF900895CF93DF93CDB7DEB7BA
:103F3000F091A200FF93F87FF093A20080912E35BC
:103F400090912F35892BE9F484E195E30E9488074D
:103F50008FE195E30E94880784E195E380932A35F9
:103F600090932B358FE195E380932C3590932D35ED
:103F700040E069E085E00E94050D80932E35909326
:103F80002F35FF91F093A2000000DF91CF910895AB
:103F90000F931F93CF93DF93CDB7DEB76497CDBF59
:103FA000DEBF8B879C876D877E872F87388B498BF9
:103FB0005A8B0B8B1C8B8EEF8A838B859C858B8316
:103FC0009C838D859E858D839E838F859889A98905
:103FD000BA898F839887A987BA8780912E35909167
:103FE0002F354B895C89BE016E5F7F4F20E00E94B8
:103FF0004C0E898389816496CDBFDEBFDF91CF915E
:104000001F910F910895CF93DF93CDB7DEB780E571
:1040100090E020E530E0F90120812160FC0120835F
:1040200080E590E0FC018181882F90E081709927E4
:10403000892BB1F380E00E9439038EE10E940203D4
:1040400060E080E00E94220343E060E080E40E94A0
:10405000CD0280E590E020E530E0F9012081286084
:10406000FC01208380E590E0FC018181882F90E0B5
:1040700088709927892BB1F364E080EC0E94EA02F2
:1040800080E590E020E530E0F90120812061FC012D
:10409000208360E080E00E94220380E590E0FC0144
:1040A0008181882F90E080719927892BB1F384E07A
:1040B0000E94390387E00E9402030000DF91CF9144
:1040C0000895CF93DF93CDB7DEB70000DF91CF9196
:1040D0000895EF92FF920F93CF93DF93CDB7DEB7A2
:1040E0000E9403200E940E280E94F90380936635E7
:1040F000909367350E94F9038093683590936935F2
:10410000E12CF12C01E020E030E042ED50E061E1F3
:1041100070E28CE196E20E948611E12CF12C02E023
:1041200020E030E046EE50E06AE170E281E995E29D
:104130000E948611E12CF12C03E020E030E046EEF5
:1041400050E061E270E28EEB90E20E948611E12C79
:10415000F12C01E020E030E04CE251E06AE270E254
:1041600085EB91E20E9486110E943F1480E090E06E
:10417000DF91CF910F91FF90EF900895CF93DF9350
:1041800000D000D0CDB7DEB78D839E830E942F155F
:10419000DC01CB0189839A83AB83BC838091363564
:1041A0008F5F80933635809136358C3338F010929E
:1041B0003635809101208F5F80930120809101200E
:1041C0008C3338F010920120809100208F5F809313
:1041D000002080910020883110F01092002048EEDD
:1041E00053E060E070E0CE0101960E945913D6CFF3
:1041F000CF93DF931F92CDB7DEB789838981882F54
:1042000090E08130910561F08230910579F0892B41
:1042100009F012C0809100208F5F809300200CC0B5
:10422000809101208F5F8093012006C080913635F8
:104230008F5F80933635000000000F90DF91CF91A3
:104240000895CF93DF931F92CDB7DEB7898389811D
:10425000882F90E08130910561F08230910579F0EE
:10426000892B09F00FC0809100208150809300209D
:1042700009C08091012081508093012003C01092D9
:104280003635000000000F90DF91CF910895CF9355
:10429000DF931F92CDB7DEB789838981882F90E0A5
:1042A0008130910561F08230910579F0892B09F018
:1042B00012C0809102208F5F809302200CC08091F9
:1042C00003208F5F8093032006C0809137358F5F76
:1042D00080933735000000000F90DF91CF91089553
:1042E000CF93DF931F92CDB7DEB789838981882F63
:1042F00090E08130910561F08230910579F0892B51
:1043000009F012C0809102208150809302200CC0DD
:104310008091032081508093032006C0809137351F
:10432000815080933735000000000F90DF91CF91CE
:104330000895CF93DF93CDB7DEB7909100208091A1
:104340000220981771F49091012080910320981712
:1043500041F49091363580913735981711F481E00A
:1043600001C080E0DF91CF910895CF93DF93CDB767
:10437000DEB76D97CDBFDEBF8C8F9D8F8FE0EFEEE8
:10438000F0E2DE01189601900D928A95E1F725E0A2
:10439000CE014796FC01322F11923A95E9F7198226
:1043A0008AE08A831B820E94592A80916635909107
:1043B000673540E050E0BA010E945405DC01CB01B2
:1043C0009927AA27BB278C839D83AE83BF838091C7
:1043D0006635909167354FEF50E060E070E00E94E5
:1043E000540580913835882F90E08230910509F48A
:1043F000A3C18330910534F4009761F0019709F46B
:1044000074C088C38330910509F460C2049709F42D
:1044100027C380C381E390E2892F8F9381E390E2E9
:104420008F931F921F921F921F920E946B2A0F90D0
:104430000F900F900F900F900F908A81882F90E02F
:10444000092E000CAA0BBB0B41E050E029E030E044
:10445000841B950B2817390728F1FC018827E85F92
:10446000FE4F8F4F0C9402328EE288871BC08EE283
:10447000898718C08EE28A8715C08EE28B8712C0AA
:104480008EE28C870FC08EE28D870CC08EE28E8705
:1044900009C08EE28F8706C08EE2888B03C08EE251
:1044A000898B0000CE010896292F2F938F9385E4E6
:1044B00090E2892F8F9385E490E28F931F921F9251
:1044C0001F9282E08F930E946B2A8DB79EB7089649
:1044D000CDBFDEBF8A81882321F08A8181508A8303
:1044E00019C381E08093383515C380913635482F44
:1044F00050E080910120282F30E080910020882F0B
:1045000090E0652F6F934F93432F4F932F93292F55
:104510002F938F9380E590E2892F8F9380E590E22F
:104520008F93CE010896292F2F938F930E94533299
:10453000EDB7FEB73A96CDBFDEBF8FE590E2892F8B
:104540008F938FE590E28F931F921F921F921F927D
:104550000E946B2A0F900F900F900F900F900F906A
:10456000CE010896292F2F938F9380E790E2892F11
:104570008F9380E790E28F931F921F921F9281E0AA
:104580008F930E946B2A8DB79EB70896CDBFDEBF72
:1045900080913735482F50E080910320282F30E05C
:1045A00080910220882F90E0652F6F934F93432FC7
:1045B0004F932F93292F2F938F9380E590E2892F8C
:1045C0008F9380E590E28F93CE010896292F2F9349
:1045D0008F930E945332EDB7FEB73A96CDBFDEBF40
:1045E000CE010896292F2F938F938AE790E2892F87
:1045F0008F938AE790E28F931F921F921F9282E01F
:104600008F930E946B2A8DB79EB70896CDBFDEBFF1
:10461000998181E089278823B1F084E890E2892F8D
:104620008F9384E890E28F931F9280E18F931F9283
:1046300082E08F930E946B2A0F900F900F900F9043
:104640000F900F9015C088E890E2892F8F9388E82B
:1046500090E28F931F9280E18F931F9282E08F935D
:104660000E946B2A0F900F900F900F900F900F9059
:10467000CE010896292F2F938F938BE890E2892FF4
:104680008F938BE890E28F931F921F921F9283E08B
:104690008F930E946B2AEDB7FEB73896CDBFDEBF71
:1046A0008C819D81AE81BF8180789927AA27BB2705
:1046B000892B8A2B8B2B21F082E0809338351B824B
:1046C0008C819D81AE81BF8180749927AA27BB27E9
:1046D000892B8A2B8B2B21F083E0809338351B822A
:1046E0008C819D81AE81BF8182709927AA27BB27CB
:1046F000892B8A2B8B2B39F08981882311F080E05C
:1047000001C081E089838981882309F400C20E9465
:104710009921882309F4FBC184E08093383582E332
:104720008A83809168359091693541E050E060E07E
:1047300070E00E949F05EBC180913635482F50E014
:1047400080910120282F30E080910020882F90E078
:10475000652F6F934F93432F4F932F93292F2F93B1
:104760008F9380E590E2892F8F9380E590E28F937D
:10477000CE010896292F2F938F930E9453328DB725
:104780009EB70A96CDBFDEBF8FE990E2892F8F9347
:104790008FE990E28F931F921F921F921F920E94A7
:1047A0006B2A0F900F900F900F900F900F90CE01EB
:1047B0000896292F2F938F9380E790E2892F8F936C
:1047C00080E790E28F931F921F921F9281E08F9358
:1047D0000E946B2AEDB7FEB73896CDBFDEBFCE0183
:1047E0000896292F2F938F9389EA90E2892F8F9330
:1047F00089EA90E28F931F921F921F9283E08F931A
:104800000E946B2A8DB79EB70896CDBFDEBF8C8104
:104810009D81AE81BF8188709927AA27BB27892BEC
:104820008A2B8B2B19F081E0809338358C819D8108
:10483000AE81BF8181709927AA27BB27892B8A2B3C
:104840008B2B19F08B810E9421218C819D81AE815F
:10485000BF8182709927AA27BB27892B8A2B8B2B94
:1048600019F08B810E94F8208C819D81AE81BF81DF
:1048700084709927AA27BB27892B8A2B8B2B39F089
:104880008B818F5F8B838B81833008F01B828B81C0
:10489000282F30E0C901880F991F820F931F0796B8
:1048A0002DEB30E2232F2F932DEB30E22F93292F86
:1048B0002F938F931F9282E08F930E946B2A0F9009
:1048C0000F900F900F900F900F9024C1809137356B
:1048D000482F50E080910320282F30E08091022063
:1048E000882F90E0652F6F934F93432F4F932F9313
:1048F000292F2F938F9380E590E2892F8F9380E566
:1049000090E28F93CE010896292F2F938F930E94C8
:104910005332EDB7FEB73A96CDBFDEBF80EC90E2E2
:10492000892F8F9380EC90E28F931F921F921F929A
:104930001F920E946B2A0F900F900F900F900F9074
:104940000F90CE010896292F2F938F938AE790E23C
:10495000892F8F938AE790E28F931F921F921F9265
:1049600082E08F930E946B2A8DB79EB70896CDBFC9
:10497000DEBFCE010896292F2F938F9389EA90E20C
:10498000892F8F9389EA90E28F931F921F921F9233
:1049900083E08F930E946B2AEDB7FEB73896CDBFA8
:1049A000DEBF8C819D81AE81BF8188709927AA2747
:1049B000BB27892B8A2B8B2B19F081E0809338350C
:1049C0008C819D81AE81BF8181709927AA27BB27E9
:1049D000892B8A2B8B2B19F08B810E9470218C8163
:1049E0009D81AE81BF8182709927AA27BB27892B21
:1049F0008A2B8B2B19F08B810E9447218C819D8102
:104A0000AE81BF8184709927AA27BB27892B8A2B67
:104A10008B2B39F08B818F5F8B838B81833008F0F8
:104A20001B828B81282F30E0C901880F991F820FCC
:104A3000931F07962AEC30E2232F2F932AEC30E2C3
:104A40002F93292F2F938F931F9281E08F930E9492
:104A50006B2A0F900F900F900F900F900F905AC0ED
:104A60008DEC90E2892F8F938DEC90E28F931F92C3
:104A70001F921F921F920E946B2A0F900F900F900F
:104A80000F900F900F908BED90E2892F8F938BED0D
:104A900090E28F931F921F921F9283E08F930E9448
:104AA0006B2A0F900F900F900F900F900F908A81AC
:104AB000882399F08A8181508A838A81882369F4C6
:104AC000809168359091693541E050E060E070E098
:104AD0000E94540581E0809338358C819D81AE81A0
:104AE000BF8188709927AA27BB27892B8A2B8B2BFC
:104AF00081F0809168359091693541E050E060E047
:104B000070E00E94540581E08093383502C00000B7
:104B100001C0000068EC70E080E090E00E94111499
:104B200042CCCF93DF931F921F92CDB7DEB789831C
:104B30009A830E946A010E94860180E00E947802A6
:104B4000813051F4809166359091673541E050E0B5
:104B500060E070E00E949F0581E00E947802813051
:104B600051F4809166359091673542E050E060E005
:104B700070E00E949F0582E00E947802813051F42B
:104B8000809166359091673544E050E060E070E0D8
:104B90000E949F0583E00E947802813051F4809149
:104BA00066359091673548E050E060E070E00E9423
:104BB0009F0580E00E947802882351F48091663539
:104BC0009091673540E150E060E070E00E949F0501
:104BD00081E00E947802882351F48091663590919B
:104BE000673540E250E060E070E00E949F0582E09F
:104BF0000E947802882351F4809166359091673540
:104C000040E450E060E070E00E949F0583E00E9475
:104C10007802882351F4809166359091673540E899
:104C200050E060E070E00E949F056AE070E080E084
:104C300090E00E9411147FCFCF93DF9300D0CDB7C7
:104C4000DEB78A839B8380EA96E02FE0FC01218314
:104C500080E896E02FE0FC01218380EA96E02FE0D7
:104C6000FC01248380E896E02FE0FC012483198274
:104C7000809168359091693540E050E0BA010E941A
:104C80005405DC01CB0181709927AA27BB27892B0A
:104C90008A2B8B2BE9F0998181E08927898389818F
:104CA000882359F480EA96E02FE0FC01258380E810
:104CB00096E02FE0FC01268315C080EA96E02FE005
:104CC000FC01268380E896E02FE0FC0125830AC0E2
:104CD00080EA96E02FE0FC01248380E896E02FE054
:104CE000FC01248364E670E080E090E00E941114EF
:104CF000BFCF1F920F9200903F000F92112400909F
:104D00003B000F922F933F934F935F936F937F934B
:104D10008F939F93AF93BF93EF93FF93CF93DF93C3
:104D20001F92CDB7DEB7198280916C3590916D35A9
:104D30009E012F5F3F4F41E050E060E070E00E9435
:104D40000C0760E080E09BE00E945B0380E09BE05A
:104D5000FC01168200000F90DF91CF91FF91EF913F
:104D6000BF91AF919F918F917F916F915F914F9183
:104D70003F912F910F9000923B000F9000923F00C7
:104D80000F901F901895CF92DF92EF92FF920F93A2
:104D9000CF93DF9300D01F92CDB7DEB769837A83BC
:104DA0008B839C8389819A81AB81BC810297A10509
:104DB000B10540F482E090E0A0E0B0E089839A83FE
:104DC000AB83BC8380E09BE021E0FC01268380E094
:104DD0009BE0FC0110A211A260E080E09BE00E9439
:104DE000770389819A81AB81BC818E3F9F4FA1055A
:104DF000B10598F420E03BE089819A81AB81BC81C8
:104E0000B695A79597958795F90186A397A365E031
:104E100080E09BE00E945B031FC089819A81AB8187
:104E2000BC8180349244AF40B105B0F420E03BE057
:104E300089819A81AB81BC81689414F8B695A79555
:104E4000979587951694D1F7F90186A397A367E004
:104E500080E09BE00E945B0380916C3590916D3502
:104E60000F2EF4EFCF2EDD24D394E12CF12CF02D76
:104E700000E021E041E050E060E070E00E941C04AE
:104E800000002496CDBFDEBFDF91CF910F91FF9040
:104E9000EF90DF90CF900895CF93DF931F92CDB71F
:104EA000DEB7898389818F70898389818295807F2C
:104EB000898380E096E020E036E0F90134812981A1
:104EC0002F602323FC01248380E096E020E036E07D
:104ED000F90134812981232BFC01248300000F90E8
:104EE000DF91CF910895CF93DF931F92CDB7DEB7B7
:104EF00089838981882331F080E696E021E0FC01F6
:104F0000258305C080E696E021E0FC0126830000B1
:104F10000F90DF91CF910895CF93DF931F92CDB77C
:104F2000DEB789838981882331F080E696E022E02C
:104F3000FC01258305C080E696E022E0FC01268383
:104F400000000F90DF91CF910895CF93DF931F92D0
:104F5000CDB7DEB789838981882331F080E696E07A
:104F600024E0FC01258305C080E696E024E0FC01F6
:104F7000268300000F90DF91CF910895CF93DF93A8
:104F8000CDB7DEB781E00E94A52761E070E080E048
:104F900090E00E94C32680E00E94A5270000DF91D8
:104FA000CF910895CF93DF931F92CDB7DEB789835A
:104FB000898182958F700E944C2780E00E94732720
:104FC00080E00E948C270E94BE2789818F700E94FA
:104FD0004C270E94BE2700000F90DF91CF910895CB
:104FE000CF93DF931F92CDB7DEB7898389818295F6
:104FF0008F700E944C2781E00E94732780E00E94FE
:105000008C270E94BE2789818F700E944C270E94A6
:10501000BE2700000F90DF91CF910895EF92FF928D
:105020000F93CF93DF93CDB7DEB780E096E020E11A
:10503000FC01218380E096E020E2FC01218380E0F6
:1050400096E020E4FC01218380E096E020E8FC016A
:10505000218380E696E021E0FC01218380E696E052
:1050600022E0FC01218380E696E024E0FC0121831C
:1050700080E096E020E036E0F90124812F70FC0109
:10508000248380E696E020E636E0F9012481287F3B
:10509000FC01248340E066E188E00E94050D8093D6
:1050A0006A3590936B350E94F90380936C35909329
:1050B0006D35E12CF12C01E020E030E04EE551E0CF
:1050C00063E071E28CE099E20E9486110000DF91BA
:1050D000CF910F91FF90EF900895CF93DF9300D081
:1050E0001F92CDB7DEB789839A836B837C838981D6
:1050F0009A818130910589F0823091051CF4892BC9
:1051000039F01AC08230910569F0039781F014C01C
:105110008B8180580E94D2270FC08B8180540E94BF
:10512000D2270AC08B818C560E94D22705C08B8162
:105130008C520E94D227000067E270E080E090E08D
:105140000E94C32600002496CDBFDEBFDF91CF9121
:105150000895CF93DF931F92CDB7DEB789838981FE
:105160000E94F0276BE270E080E090E00E94C3268E
:1051700000000F90DF91CF910895CF93DF9300D07F
:105180001F92CDB7DEB78B839C8319821A8219C018
:1051900089819A812B813C81820F931FFC01808140
:1051A0008823A1F089819A812B813C81820F931FF2
:1051B000FC0180810E94A92889819A8101968983B6
:1051C0009A8389819A8144971CF301C000000000F2
:1051D0002496CDBFDEBFDF91CF910895CF93DF93AB
:1051E00000D000D0CDB7DEB789839A836B837C83F0
:1051F0004D835E832B813C8189819A81B9010E9414
:105200006D288D819E810E94BD2800002696CDBF0D
:10521000DEBFDF91CF910895CF93DF93CDB7DEB797
:10522000C057D109CDBFDEBF9E0121593F4FF901C3
:105230008083918319821A821B821C821D821E82A6
:1052400026C01F8218861AC02D813E8144E1429FEC
:10525000C001439F900D11249E012F5F3F4F280FE7
:10526000391F8F819885820F931F089620E2FC01D9
:1052700020838F81988501968F8398878F81988569
:10528000449714F38D819E8101968D839E838D8139
:105290009E810497B4F260E47CE980E090E00E9493
:1052A000C32683E00E944C2768E873E180E090E029
:1052B0000E94C3260E94BE2760EA70E080E090E072
:1052C0000E94C3260E94BE2760EA70E080E090E062
:1052D0000E94C3260E94BE2760EA70E080E090E052
:1052E0000E94C32682E00E944C270E94BE2788E2CB
:1052F0000E94D22780E10E94D2278CE00E94D22710
:1053000086E00E94D22768EC70E080E090E00E9486
:10531000111480916C3590916D3540E050E0BA01E8
:105320000E945405DC01CB01892B8A2B8B2B09F4BD
:1053300096C080916C3590916D3542E050E060E010
:1053400070E00E94540519821A8226C01B821C82BA
:105350001AC029813A8144E1429FC001439F900DC8
:1053600011249E012F5F3F4F280F391F8B819C8195
:10537000820F931F089620E2FC0120838B819C8181
:1053800001968B839C838B819C81449714F3898144
:105390009A81019689839A8389819A810497B4F2CC
:1053A0005EC080916A3590916B35BE01675A7F4F20
:1053B0002FEF3FEFA9010E94AC0E882309F44FC0E4
:1053C00019821A8232C0CE01875A9F4FFC01808118
:1053D000482F50E0CE01875A9F4FFC018181282F32
:1053E00030E089819A81820F931FBE01675A7F4FF7
:1053F00029813A81260F371F2E5F3F4FF9016081C7
:1054000074E1749F9001759F300D1124AE014F5FC0
:105410005F4F240F351F820F931F0896FC01608396
:1054200089819A81019689839A83CE01875A9F4FF9
:10543000FC018181282F30E089819A81820F931F9E
:1054400044976CF49E01275A3F4F89819A81820FBD
:10545000931F0296FC018081882309F0B4CF8091CC
:105460006A3590916B350E946C0F882309F099CFB3
:1054700019821A8219C09E01275F3F4F49815A81C4
:1054800064E1649FC001659F900D1124280F391FAE
:1054900089819A81A90160E070E00E94EE288981EB
:1054A0009A81019689839A8389819A8104971CF352
:1054B0002ACFCF93DF93CDB7DEB780916C35909133
:1054C0006D3542E050E060E070E00E949F05000012
:1054D000DF91CF910895CF93DF931F921F92CDB7A5
:1054E000DEB7CE010E9689839A8329813A814C8555
:1054F0005D856A857B85888599850E94852A00005F
:105500000F900F90DF91CF9108950F93CF93DF937A
:10551000CDB7DEB7EC97CDBFDEBF8DAB9EAB6FAB2B
:1055200078AF49AF5AAF2BAF3CAF19821A821B82BA
:105530001C820BC08B819C81875C9A4CFC01108281
:105540008B819C8101968B839C838B819C8144976A
:105550008CF31D821E820BC08D819E81835B9A4CD1
:10556000FC0110828D819E8101968D839E838D81A9
:105570009E8144978CF3BEC18D89853209F0A0C10C
:1055800089AD9AAD9C012F5F3F4F29AF3AAFFC0127
:1055900080818D8B8D89882F90E08536910509F467
:1055A00046C18636910554F48336910501F184365F
:1055B00091050CF070C0859769F09CC18337910507
:1055C00071F18837910509F4A8C08636910509F470
:1055D000E6C090C189819A81835B9A4C25E2FC01E7
:1055E000208389819A81019689839A8383C18BADB7
:1055F0009CAD9C012E5F3F4F2BAF3CAFFC018081E7
:1056000091818E8B89819A81835B9A4C2E89FC01D2
:10561000208389819A81019689839A836BC18BAD9E
:105620009CAD9C012E5F3F4F2BAF3CAFFC018081B6
:1056300091818F8B988F1F82188617C029813A819C
:105640008F819885820F931F2F8138854F89588DC0
:10565000240F351FF9012081835B9A4CFC012083C4
:105660008F81988501968F8398878F89988D0E9466
:105670001A329C018F81988582179307F8F28F89DF
:10568000988D0E941A329C0189819A81820F931F02
:1056900089839A832FC18BAD9CAD9C012E5F3F4FB8
:1056A0002BAF3CAFFC0180819181898F9A8F898DCE
:1056B0009A8D4AE050E069E375E30E94233219862F
:1056C0001A8615C029813A8189859A85820F931F90
:1056D00029853A85275C3A4CF9012081835B9A4CF5
:1056E000FC01208389859A85019689879A8789E3B9
:1056F00095E30E941A329C0189859A858217930747
:1057000008F389E395E30E941A329C0189819A810A
:10571000820F931F89839A83EDC08BAD9CAD9C0152
:105720002E5F3F4F2BAF3CAFFC0180819181898F71
:105730009A8F898D9A8D40E150E069E375E30E946C
:1057400023321B861C8615C029813A818B859C8556
:10575000820F931F2B853C85275C3A4CF9012081F1
:10576000835B9A4CFC0120838B859C8501968B87FB
:105770009C8789E395E30E941A329C018B859C8566
:105780008217930708F389E395E30E941A329C017C
:1057900089819A81820F931F89839A83ABC08BADD5
:1057A0009CAD9C012C5F3F4F2BAF3CAFFC01808137
:1057B0009181A281B3818B8F9C8FAD8FBE8F8B8D9A
:1057C0009C8DAD8DBE8DAC01BD0189E395E30E943A
:1057D000542D1D861E8615C029813A818D859E8592
:1057E000820F931F2D853E85275C3A4CF90120815D
:1057F000835B9A4CFC0120838D859E8501968D8765
:105800009E8789E395E30E941A329C018D859E85CF
:105810008217930708F389E395E30E941A329C01EB
:1058200089819A81820F931F89839A8363C08BAD8C
:105830009CAD9C012C5F3F4F2BAF3CAFFC018081A6
:105840009181A281B3818B8F9C8FAD8FBE8F8B8D09
:105850009C8DAD8DBE8DAC01BD0189E395E30E94A9
:10586000A32E1F86188A15C029813A818F859889B1
:10587000820F931F2F853889275C3A4CF9012081CC
:10588000835B9A4CFC0120838F85988901968F87D2
:10589000988B89E395E30E941A329C018F85988941
:1058A0008217930708F389E395E30E941A329C015B
:1058B00089819A81820F931F89839A8300001AC07D
:1058C00089819A81835B9A4C2D89FC01208389818F
:1058D0009A81835B9A4CFC0180818A3031F4898102
:1058E0009A81835B9A4CFC01108289819A8101968E
:1058F00089839A8389AD9AAD9C012F5F3F4F29AF71
:105900003AAFFC0180818D8B8D89882309F034CEDC
:1059100029813A818FA998AD820F931F449754F043
:1059200024E130E08FA998ADA901481B590BCA01A9
:1059300089839A83198A1A8A0EC09E012F5D3F4F70
:1059400089899A89820F931FFC01108289899A891B
:105950000196898B9A8B89899A89449774F38DA9CA
:105960008F8F8FA988A31B8A1C8A14C08B899C895E
:10597000835B9A4CFC0140819E012F5D3F4F8B89D8
:105980009C89820F931FFC0140838B899C8901961F
:105990008B8B9C8B2B893C8989819A8128173907AD
:1059A0002CF380916A3590916B35BE01615E7F4F1B
:1059B00000E02FEF3FEFA9010E948A0D89819A81B3
:1059C000EC96CDBFDEBFDF91CF910F910895CF93BD
:1059D000DF93CDB7DEB72897CDBFDEBF8F83988723
:1059E00019821A828F819885FC0180819181A28120
:1059F000B3818B839C83AD83BE8315C020E030E0F0
:105A000040E251E46B817C818D819E810E94363021
:105A1000DC01CB018B839C83AD83BE8389819A811A
:105A2000019689839A8320E030E040E85FE36B8150
:105A30007C818D819E810E9490318823FCF615C067
:105A400020E030E040E251E46B817C818D819E81D9
:105A50000E949531DC01CB018B839C83AD83BE8397
:105A600089819A81019789839A832DEC3CEC4CECD7
:105A70005DE36B817C818D819E810E943130882322
:105A8000FCF22F8138858B819C81AD81BE81F9012B
:105A900080839183A283B38389819A812896CDBF25
:105AA000DEBFDF91CF910895CF92DF92EF92FF9208
:105AB000CF93DF93CDB7DEB72E97CDBFDEBF8987FB
:105AC0009A874B875C876D877E8719821A821B8233
:105AD0001C828B859C85AD85BE8520E030E0A901C8
